{
  "_format": "hh-sol-artifact-1",
  "contractName": "AfterpartyEvent",
  "sourceName": "contracts/AfterpartyEvent.sol",
  "abi": [
    {
      "inputs": [],
      "stateMutability": "nonpayable",
      "type": "constructor"
    },
    {
      "inputs": [
        {
          "internalType": "address",
          "name": "owner",
          "type": "address"
        }
      ],
      "name": "OwnableInvalidOwner",
      "type": "error"
    },
    {
      "inputs": [
        {
          "internalType": "address",
          "name": "account",
          "type": "address"
        }
      ],
      "name": "OwnableUnauthorizedAccount",
      "type": "error"
    },
    {
      "anonymous": false,
      "inputs": [
        {
          "indexed": true,
          "internalType": "address",
          "name": "previousOwner",
          "type": "address"
        },
        {
          "indexed": true,
          "internalType": "address",
          "name": "newOwner",
          "type": "address"
        }
      ],
      "name": "OwnershipTransferred",
      "type": "event"
    },
    {
      "inputs": [],
      "name": "attendanceToken",
      "outputs": [
        {
          "internalType": "contract AttendanceToken",
          "name": "",
          "type": "address"
        }
      ],
      "stateMutability": "view",
      "type": "function"
    },
    {
      "inputs": [],
      "name": "claim",
      "outputs": [],
      "stateMutability": "nonpayable",
      "type": "function"
    },
    {
      "inputs": [],
      "name": "owner",
      "outputs": [
        {
          "internalType": "address",
          "name": "",
          "type": "address"
        }
      ],
      "stateMutability": "view",
      "type": "function"
    },
    {
      "inputs": [],
      "name": "renounceOwnership",
      "outputs": [],
      "stateMutability": "nonpayable",
      "type": "function"
    },
    {
      "inputs": [
        {
          "internalType": "address",
          "name": "newOwner",
          "type": "address"
        }
      ],
      "name": "transferOwnership",
      "outputs": [],
      "stateMutability": "nonpayable",
      "type": "function"
    }
  ],
  "bytecode": "0x608060405234801561001057600080fd5b5033600073ffffffffffffffffffffffffffffffffffffffff168173ffffffffffffffffffffffffffffffffffffffff16036100845760006040517f1e4fbdf700000000000000000000000000000000000000000000000000000000815260040161007b9190610214565b60405180910390fd5b6100938161010260201b60201c565b506040516100a0906101c6565b604051809103906000f0801580156100bc573d6000803e3d6000fd5b50600160006101000a81548173ffffffffffffffffffffffffffffffffffffffff021916908373ffffffffffffffffffffffffffffffffffffffff16021790555061022f565b60008060009054906101000a900473ffffffffffffffffffffffffffffffffffffffff169050816000806101000a81548173ffffffffffffffffffffffffffffffffffffffff021916908373ffffffffffffffffffffffffffffffffffffffff1602179055508173ffffffffffffffffffffffffffffffffffffffff168173ffffffffffffffffffffffffffffffffffffffff167f8be0079c531659141344cd1fd0a4f28419497f9722a3daafe3b4186f6b6457e060405160405180910390a35050565b6128758061073b83390190565b600073ffffffffffffffffffffffffffffffffffffffff82169050919050565b60006101fe826101d3565b9050919050565b61020e816101f3565b82525050565b60006020820190506102296000830184610205565b92915050565b6104fd8061023e6000396000f3fe608060405234801561001057600080fd5b50600436106100575760003560e01c80634e71d92d1461005c578063715018a6146100665780638da5cb5b14610070578063a9b5e2ea1461008e578063f2fde38b146100ac575b600080fd5b6100646100c8565b005b61006e610157565b005b61007861016b565b60405161008591906103d4565b60405180910390f35b610096610194565b6040516100a3919061044e565b60405180910390f35b6100c660048036038101906100c1919061049a565b6101ba565b005b600160009054906101000a900473ffffffffffffffffffffffffffffffffffffffff1673ffffffffffffffffffffffffffffffffffffffff16631e83409a336040518263ffffffff1660e01b815260040161012391906103d4565b600060405180830381600087803b15801561013d57600080fd5b505af1158015610151573d6000803e3d6000fd5b50505050565b61015f610240565b61016960006102c7565b565b60008060009054906101000a900473ffffffffffffffffffffffffffffffffffffffff16905090565b600160009054906101000a900473ffffffffffffffffffffffffffffffffffffffff1681565b6101c2610240565b600073ffffffffffffffffffffffffffffffffffffffff168173ffffffffffffffffffffffffffffffffffffffff16036102345760006040517f1e4fbdf700000000000000000000000000000000000000000000000000000000815260040161022b91906103d4565b60405180910390fd5b61023d816102c7565b50565b61024861038b565b73ffffffffffffffffffffffffffffffffffffffff1661026661016b565b73ffffffffffffffffffffffffffffffffffffffff16146102c55761028961038b565b6040517f118cdaa70000000000000000000000000000000000000000000000000000000081526004016102bc91906103d4565b60405180910390fd5b565b60008060009054906101000a900473ffffffffffffffffffffffffffffffffffffffff169050816000806101000a81548173ffffffffffffffffffffffffffffffffffffffff021916908373ffffffffffffffffffffffffffffffffffffffff1602179055508173ffffffffffffffffffffffffffffffffffffffff168173ffffffffffffffffffffffffffffffffffffffff167f8be0079c531659141344cd1fd0a4f28419497f9722a3daafe3b4186f6b6457e060405160405180910390a35050565b600033905090565b600073ffffffffffffffffffffffffffffffffffffffff82169050919050565b60006103be82610393565b9050919050565b6103ce816103b3565b82525050565b60006020820190506103e960008301846103c5565b92915050565b6000819050919050565b600061041461040f61040a84610393565b6103ef565b610393565b9050919050565b6000610426826103f9565b9050919050565b60006104388261041b565b9050919050565b6104488161042d565b82525050565b6000602082019050610463600083018461043f565b92915050565b600080fd5b610477816103b3565b811461048257600080fd5b50565b6000813590506104948161046e565b92915050565b6000602082840312156104b0576104af610469565b5b60006104be84828501610485565b9150509291505056fea2646970667358221220799f36ec32713cd6b0c0db4561ce6375e39e163d451e121c999050f7da602be864736f6c63430008140033608060405260016007553480156200001657600080fd5b50336040518060400160405280601081526020017f417474656e64616e636520546f6b656e000000000000000000000000000000008152506040518060400160405280600481526020017f4154544e00000000000000000000000000000000000000000000000000000000815250816000908162000095919062000477565b508060019081620000a7919062000477565b505050600073ffffffffffffffffffffffffffffffffffffffff168173ffffffffffffffffffffffffffffffffffffffff16036200011f5760006040517f1e4fbdf7000000000000000000000000000000000000000000000000000000008152600401620001169190620005a3565b60405180910390fd5b62000130816200013760201b60201c565b50620005c0565b6000600660009054906101000a900473ffffffffffffffffffffffffffffffffffffffff16905081600660006101000a81548173ffffffffffffffffffffffffffffffffffffffff021916908373ffffffffffffffffffffffffffffffffffffffff1602179055508173ffffffffffffffffffffffffffffffffffffffff168173ffffffffffffffffffffffffffffffffffffffff167f8be0079c531659141344cd1fd0a4f28419497f9722a3daafe3b4186f6b6457e060405160405180910390a35050565b600081519050919050565b7f4e487b7100000000000000000000000000000000000000000000000000000000600052604160045260246000fd5b7f4e487b7100000000000000000000000000000000000000000000000000000000600052602260045260246000fd5b600060028204905060018216806200027f57607f821691505b60208210810362000295576200029462000237565b5b50919050565b60008190508160005260206000209050919050565b60006020601f8301049050919050565b600082821b905092915050565b600060088302620002ff7fffffffffffffffffffffffffffffffffffffffffffffffffffffffffffffffff82620002c0565b6200030b8683620002c0565b95508019841693508086168417925050509392505050565b6000819050919050565b6000819050919050565b600062000358620003526200034c8462000323565b6200032d565b62000323565b9050919050565b6000819050919050565b620003748362000337565b6200038c62000383826200035f565b848454620002cd565b825550505050565b600090565b620003a362000394565b620003b081848462000369565b505050565b5b81811015620003d857620003cc60008262000399565b600181019050620003b6565b5050565b601f8211156200042757620003f1816200029b565b620003fc84620002b0565b810160208510156200040c578190505b620004246200041b85620002b0565b830182620003b5565b50505b505050565b600082821c905092915050565b60006200044c600019846008026200042c565b1980831691505092915050565b600062000467838362000439565b9150826002028217905092915050565b6200048282620001fd565b67ffffffffffffffff8111156200049e576200049d62000208565b5b620004aa825462000266565b620004b7828285620003dc565b600060209050601f831160018114620004ef5760008415620004da578287015190505b620004e6858262000459565b86555062000556565b601f198416620004ff866200029b565b60005b82811015620005295784890151825560018201915060208501945060208101905062000502565b8683101562000549578489015162000545601f89168262000439565b8355505b6001600288020188555050505b505050505050565b600073ffffffffffffffffffffffffffffffffffffffff82169050919050565b60006200058b826200055e565b9050919050565b6200059d816200057e565b82525050565b6000602082019050620005ba600083018462000592565b92915050565b6122a580620005d06000396000f3fe608060405234801561001057600080fd5b50600436106101215760003560e01c8063715018a6116100ad578063a22cb46511610071578063a22cb46514610308578063b88d4fde14610324578063c87b56dd14610340578063e985e9c514610370578063f2fde38b146103a057610121565b8063715018a61461027457806373b2e80e1461027e57806375794a3c146102ae5780638da5cb5b146102cc57806395d89b41146102ea57610121565b80631e83409a116100f45780631e83409a146101c057806323b872dd146101dc57806342842e0e146101f85780636352211e1461021457806370a082311461024457610121565b806301ffc9a71461012657806306fdde0314610156578063081812fc14610174578063095ea7b3146101a4575b600080fd5b610140600480360381019061013b9190611a0c565b6103bc565b60405161014d9190611a54565b60405180910390f35b61015e61049e565b60405161016b9190611aff565b60405180910390f35b61018e60048036038101906101899190611b57565b610530565b60405161019b9190611bc5565b60405180910390f35b6101be60048036038101906101b99190611c0c565b61054c565b005b6101da60048036038101906101d59190611c4c565b610562565b005b6101f660048036038101906101f19190611c79565b610676565b005b610212600480360381019061020d9190611c79565b610778565b005b61022e60048036038101906102299190611b57565b610798565b60405161023b9190611bc5565b60405180910390f35b61025e60048036038101906102599190611c4c565b6107aa565b60405161026b9190611cdb565b60405180910390f35b61027c610864565b005b61029860048036038101906102939190611c4c565b610878565b6040516102a59190611a54565b60405180910390f35b6102b6610898565b6040516102c39190611cdb565b60405180910390f35b6102d461089e565b6040516102e19190611bc5565b60405180910390f35b6102f26108c8565b6040516102ff9190611aff565b60405180910390f35b610322600480360381019061031d9190611d22565b61095a565b005b61033e60048036038101906103399190611e97565b610970565b005b61035a60048036038101906103559190611b57565b610995565b6040516103679190611aff565b60405180910390f35b61038a60048036038101906103859190611f1a565b6109fe565b6040516103979190611a54565b60405180910390f35b6103ba60048036038101906103b59190611c4c565b610a92565b005b60007f80ac58cd000000000000000000000000000000000000000000000000000000007bffffffffffffffffffffffffffffffffffffffffffffffffffffffff1916827bffffffffffffffffffffffffffffffffffffffffffffffffffffffff1916148061048757507f5b5e139f000000000000000000000000000000000000000000000000000000007bffffffffffffffffffffffffffffffffffffffffffffffffffffffff1916827bffffffffffffffffffffffffffffffffffffffffffffffffffffffff1916145b80610497575061049682610b18565b5b9050919050565b6060600080546104ad90611f89565b80601f01602080910402602001604051908101604052809291908181526020018280546104d990611f89565b80156105265780601f106104fb57610100808354040283529160200191610526565b820191906000526020600020905b81548152906001019060200180831161050957829003601f168201915b5050505050905090565b600061053b82610b82565b5061054582610c0a565b9050919050565b61055e8282610559610c47565b610c4f565b5050565b61056a610c61565b600860008273ffffffffffffffffffffffffffffffffffffffff1673ffffffffffffffffffffffffffffffffffffffff16815260200190815260200160002060009054906101000a900460ff16156105f7576040517f08c379a00000000000000000000000000000000000000000000000000000000081526004016105ee90612006565b60405180910390fd5b61060381600754610ce8565b6007600081548092919061061690612055565b91905055506001600860008373ffffffffffffffffffffffffffffffffffffffff1673ffffffffffffffffffffffffffffffffffffffff16815260200190815260200160002060006101000a81548160ff02191690831515021790555050565b600073ffffffffffffffffffffffffffffffffffffffff168273ffffffffffffffffffffffffffffffffffffffff16036106e85760006040517f64a0ae920000000000000000000000000000000000000000000000000000000081526004016106df9190611bc5565b60405180910390fd5b60006106fc83836106f7610c47565b610de1565b90508373ffffffffffffffffffffffffffffffffffffffff168173ffffffffffffffffffffffffffffffffffffffff1614610772578382826040517f64283d7b0000000000000000000000000000000000000000000000000000000081526004016107699392919061209d565b60405180910390fd5b50505050565b61079383838360405180602001604052806000815250610970565b505050565b60006107a382610b82565b9050919050565b60008073ffffffffffffffffffffffffffffffffffffffff168273ffffffffffffffffffffffffffffffffffffffff160361081d5760006040517f89c62b640000000000000000000000000000000000000000000000000000000081526004016108149190611bc5565b60405180910390fd5b600360008373ffffffffffffffffffffffffffffffffffffffff1673ffffffffffffffffffffffffffffffffffffffff168152602001908152602001600020549050919050565b61086c610c61565b6108766000610ffb565b565b60086020528060005260406000206000915054906101000a900460ff1681565b60075481565b6000600660009054906101000a900473ffffffffffffffffffffffffffffffffffffffff16905090565b6060600180546108d790611f89565b80601f016020809104026020016040519081016040528092919081815260200182805461090390611f89565b80156109505780601f1061092557610100808354040283529160200191610950565b820191906000526020600020905b81548152906001019060200180831161093357829003601f168201915b5050505050905090565b61096c610965610c47565b83836110c1565b5050565b61097b848484610676565b61098f610986610c47565b85858585611230565b50505050565b60606109a082610b82565b5060006109ab6113e1565b905060008151116109cb57604051806020016040528060008152506109f6565b806109d5846113f8565b6040516020016109e6929190612110565b6040516020818303038152906040525b915050919050565b6000600560008473ffffffffffffffffffffffffffffffffffffffff1673ffffffffffffffffffffffffffffffffffffffff16815260200190815260200160002060008373ffffffffffffffffffffffffffffffffffffffff1673ffffffffffffffffffffffffffffffffffffffff16815260200190815260200160002060009054906101000a900460ff16905092915050565b610a9a610c61565b600073ffffffffffffffffffffffffffffffffffffffff168173ffffffffffffffffffffffffffffffffffffffff1603610b0c5760006040517f1e4fbdf7000000000000000000000000000000000000000000000000000000008152600401610b039190611bc5565b60405180910390fd5b610b1581610ffb565b50565b60007f01ffc9a7000000000000000000000000000000000000000000000000000000007bffffffffffffffffffffffffffffffffffffffffffffffffffffffff1916827bffffffffffffffffffffffffffffffffffffffffffffffffffffffff1916149050919050565b600080610b8e836114c6565b9050600073ffffffffffffffffffffffffffffffffffffffff168173ffffffffffffffffffffffffffffffffffffffff1603610c0157826040517f7e273289000000000000000000000000000000000000000000000000000000008152600401610bf89190611cdb565b60405180910390fd5b80915050919050565b60006004600083815260200190815260200160002060009054906101000a900473ffffffffffffffffffffffffffffffffffffffff169050919050565b600033905090565b610c5c8383836001611503565b505050565b610c69610c47565b73ffffffffffffffffffffffffffffffffffffffff16610c8761089e565b73ffffffffffffffffffffffffffffffffffffffff1614610ce657610caa610c47565b6040517f118cdaa7000000000000000000000000000000000000000000000000000000008152600401610cdd9190611bc5565b60405180910390fd5b565b600073ffffffffffffffffffffffffffffffffffffffff168273ffffffffffffffffffffffffffffffffffffffff1603610d5a5760006040517f64a0ae92000000000000000000000000000000000000000000000000000000008152600401610d519190611bc5565b60405180910390fd5b6000610d6883836000610de1565b9050600073ffffffffffffffffffffffffffffffffffffffff168173ffffffffffffffffffffffffffffffffffffffff1614610ddc5760006040517f73c6ac6e000000000000000000000000000000000000000000000000000000008152600401610dd39190611bc5565b60405180910390fd5b505050565b600080610ded846114c6565b9050600073ffffffffffffffffffffffffffffffffffffffff168373ffffffffffffffffffffffffffffffffffffffff1614610e2f57610e2e8184866116c8565b5b600073ffffffffffffffffffffffffffffffffffffffff168173ffffffffffffffffffffffffffffffffffffffff1614610ec057610e71600085600080611503565b6001600360008373ffffffffffffffffffffffffffffffffffffffff1673ffffffffffffffffffffffffffffffffffffffff168152602001908152602001600020600082825403925050819055505b600073ffffffffffffffffffffffffffffffffffffffff168573ffffffffffffffffffffffffffffffffffffffff1614610f43576001600360008773ffffffffffffffffffffffffffffffffffffffff1673ffffffffffffffffffffffffffffffffffffffff168152602001908152602001600020600082825401925050819055505b846002600086815260200190815260200160002060006101000a81548173ffffffffffffffffffffffffffffffffffffffff021916908373ffffffffffffffffffffffffffffffffffffffff160217905550838573ffffffffffffffffffffffffffffffffffffffff168273ffffffffffffffffffffffffffffffffffffffff167fddf252ad1be2c89b69c2b068fc378daa952ba7f163c4a11628f55a4df523b3ef60405160405180910390a4809150509392505050565b6000600660009054906101000a900473ffffffffffffffffffffffffffffffffffffffff16905081600660006101000a81548173ffffffffffffffffffffffffffffffffffffffff021916908373ffffffffffffffffffffffffffffffffffffffff1602179055508173ffffffffffffffffffffffffffffffffffffffff168173ffffffffffffffffffffffffffffffffffffffff167f8be0079c531659141344cd1fd0a4f28419497f9722a3daafe3b4186f6b6457e060405160405180910390a35050565b600073ffffffffffffffffffffffffffffffffffffffff168273ffffffffffffffffffffffffffffffffffffffff160361113257816040517f5b08ba180000000000000000000000000000000000000000000000000000000081526004016111299190611bc5565b60405180910390fd5b80600560008573ffffffffffffffffffffffffffffffffffffffff1673ffffffffffffffffffffffffffffffffffffffff16815260200190815260200160002060008473ffffffffffffffffffffffffffffffffffffffff1673ffffffffffffffffffffffffffffffffffffffff16815260200190815260200160002060006101000a81548160ff0219169083151502179055508173ffffffffffffffffffffffffffffffffffffffff168373ffffffffffffffffffffffffffffffffffffffff167f17307eab39ab6107e8899845ad3d59bd9653f200f220920489ca2b5937696c31836040516112239190611a54565b60405180910390a3505050565b60008373ffffffffffffffffffffffffffffffffffffffff163b11156113da578273ffffffffffffffffffffffffffffffffffffffff1663150b7a02868685856040518563ffffffff1660e01b815260040161128f9493929190612189565b6020604051808303816000875af19250505080156112cb57506040513d601f19601f820116820180604052508101906112c891906121ea565b60015b61134f573d80600081146112fb576040519150601f19603f3d011682016040523d82523d6000602084013e611300565b606091505b50600081510361134757836040517f64a0ae9200000000000000000000000000000000000000000000000000000000815260040161133e9190611bc5565b60405180910390fd5b805181602001fd5b63150b7a0260e01b7bffffffffffffffffffffffffffffffffffffffffffffffffffffffff1916817bffffffffffffffffffffffffffffffffffffffffffffffffffffffff1916146113d857836040517f64a0ae920000000000000000000000000000000000000000000000000000000081526004016113cf9190611bc5565b60405180910390fd5b505b5050505050565b606060405180602001604052806000815250905090565b6060600060016114078461178c565b01905060008167ffffffffffffffff81111561142657611425611d6c565b5b6040519080825280601f01601f1916602001820160405280156114585781602001600182028036833780820191505090505b509050600082602001820190505b6001156114bb578080600190039150507f3031323334353637383961626364656600000000000000000000000000000000600a86061a8153600a85816114af576114ae612217565b5b04945060008503611466575b819350505050919050565b60006002600083815260200190815260200160002060009054906101000a900473ffffffffffffffffffffffffffffffffffffffff169050919050565b808061153c5750600073ffffffffffffffffffffffffffffffffffffffff168273ffffffffffffffffffffffffffffffffffffffff1614155b1561167057600061154c84610b82565b9050600073ffffffffffffffffffffffffffffffffffffffff168373ffffffffffffffffffffffffffffffffffffffff16141580156115b757508273ffffffffffffffffffffffffffffffffffffffff168173ffffffffffffffffffffffffffffffffffffffff1614155b80156115ca57506115c881846109fe565b155b1561160c57826040517fa9fbf51f0000000000000000000000000000000000000000000000000000000081526004016116039190611bc5565b60405180910390fd5b811561166e57838573ffffffffffffffffffffffffffffffffffffffff168273ffffffffffffffffffffffffffffffffffffffff167f8c5be1e5ebec7d5bd14f71427d1e84f3dd0314c0f7b2291e5b200ac8c7c3b92560405160405180910390a45b505b836004600085815260200190815260200160002060006101000a81548173ffffffffffffffffffffffffffffffffffffffff021916908373ffffffffffffffffffffffffffffffffffffffff16021790555050505050565b6116d38383836118df565b61178757600073ffffffffffffffffffffffffffffffffffffffff168373ffffffffffffffffffffffffffffffffffffffff160361174857806040517f7e27328900000000000000000000000000000000000000000000000000000000815260040161173f9190611cdb565b60405180910390fd5b81816040517f177e802f00000000000000000000000000000000000000000000000000000000815260040161177e929190612246565b60405180910390fd5b505050565b600080600090507a184f03e93ff9f4daa797ed6e38ed64bf6a1f01000000000000000083106117ea577a184f03e93ff9f4daa797ed6e38ed64bf6a1f01000000000000000083816117e0576117df612217565b5b0492506040810190505b6d04ee2d6d415b85acef81000000008310611827576d04ee2d6d415b85acef8100000000838161181d5761181c612217565b5b0492506020810190505b662386f26fc10000831061185657662386f26fc10000838161184c5761184b612217565b5b0492506010810190505b6305f5e100831061187f576305f5e100838161187557611874612217565b5b0492506008810190505b61271083106118a457612710838161189a57611899612217565b5b0492506004810190505b606483106118c757606483816118bd576118bc612217565b5b0492506002810190505b600a83106118d6576001810190505b80915050919050565b60008073ffffffffffffffffffffffffffffffffffffffff168373ffffffffffffffffffffffffffffffffffffffff161415801561199757508273ffffffffffffffffffffffffffffffffffffffff168473ffffffffffffffffffffffffffffffffffffffff161480611958575061195784846109fe565b5b8061199657508273ffffffffffffffffffffffffffffffffffffffff1661197e83610c0a565b73ffffffffffffffffffffffffffffffffffffffff16145b5b90509392505050565b6000604051905090565b600080fd5b600080fd5b60007fffffffff0000000000000000000000000000000000000000000000000000000082169050919050565b6119e9816119b4565b81146119f457600080fd5b50565b600081359050611a06816119e0565b92915050565b600060208284031215611a2257611a216119aa565b5b6000611a30848285016119f7565b91505092915050565b60008115159050919050565b611a4e81611a39565b82525050565b6000602082019050611a696000830184611a45565b92915050565b600081519050919050565b600082825260208201905092915050565b60005b83811015611aa9578082015181840152602081019050611a8e565b60008484015250505050565b6000601f19601f8301169050919050565b6000611ad182611a6f565b611adb8185611a7a565b9350611aeb818560208601611a8b565b611af481611ab5565b840191505092915050565b60006020820190508181036000830152611b198184611ac6565b905092915050565b6000819050919050565b611b3481611b21565b8114611b3f57600080fd5b50565b600081359050611b5181611b2b565b92915050565b600060208284031215611b6d57611b6c6119aa565b5b6000611b7b84828501611b42565b91505092915050565b600073ffffffffffffffffffffffffffffffffffffffff82169050919050565b6000611baf82611b84565b9050919050565b611bbf81611ba4565b82525050565b6000602082019050611bda6000830184611bb6565b92915050565b611be981611ba4565b8114611bf457600080fd5b50565b600081359050611c0681611be0565b92915050565b60008060408385031215611c2357611c226119aa565b5b6000611c3185828601611bf7565b9250506020611c4285828601611b42565b9150509250929050565b600060208284031215611c6257611c616119aa565b5b6000611c7084828501611bf7565b91505092915050565b600080600060608486031215611c9257611c916119aa565b5b6000611ca086828701611bf7565b9350506020611cb186828701611bf7565b9250506040611cc286828701611b42565b9150509250925092565b611cd581611b21565b82525050565b6000602082019050611cf06000830184611ccc565b92915050565b611cff81611a39565b8114611d0a57600080fd5b50565b600081359050611d1c81611cf6565b92915050565b60008060408385031215611d3957611d386119aa565b5b6000611d4785828601611bf7565b9250506020611d5885828601611d0d565b9150509250929050565b600080fd5b600080fd5b7f4e487b7100000000000000000000000000000000000000000000000000000000600052604160045260246000fd5b611da482611ab5565b810181811067ffffffffffffffff82111715611dc357611dc2611d6c565b5b80604052505050565b6000611dd66119a0565b9050611de28282611d9b565b919050565b600067ffffffffffffffff821115611e0257611e01611d6c565b5b611e0b82611ab5565b9050602081019050919050565b82818337600083830152505050565b6000611e3a611e3584611de7565b611dcc565b905082815260208101848484011115611e5657611e55611d67565b5b611e61848285611e18565b509392505050565b600082601f830112611e7e57611e7d611d62565b5b8135611e8e848260208601611e27565b91505092915050565b60008060008060808587031215611eb157611eb06119aa565b5b6000611ebf87828801611bf7565b9450506020611ed087828801611bf7565b9350506040611ee187828801611b42565b925050606085013567ffffffffffffffff811115611f0257611f016119af565b5b611f0e87828801611e69565b91505092959194509250565b60008060408385031215611f3157611f306119aa565b5b6000611f3f85828601611bf7565b9250506020611f5085828601611bf7565b9150509250929050565b7f4e487b7100000000000000000000000000000000000000000000000000000000600052602260045260246000fd5b60006002820490506001821680611fa157607f821691505b602082108103611fb457611fb3611f5a565b5b50919050565b7f416c726561647920636c61696d65640000000000000000000000000000000000600082015250565b6000611ff0600f83611a7a565b9150611ffb82611fba565b602082019050919050565b6000602082019050818103600083015261201f81611fe3565b9050919050565b7f4e487b7100000000000000000000000000000000000000000000000000000000600052601160045260246000fd5b600061206082611b21565b91507fffffffffffffffffffffffffffffffffffffffffffffffffffffffffffffffff820361209257612091612026565b5b600182019050919050565b60006060820190506120b26000830186611bb6565b6120bf6020830185611ccc565b6120cc6040830184611bb6565b949350505050565b600081905092915050565b60006120ea82611a6f565b6120f481856120d4565b9350612104818560208601611a8b565b80840191505092915050565b600061211c82856120df565b915061212882846120df565b91508190509392505050565b600081519050919050565b600082825260208201905092915050565b600061215b82612134565b612165818561213f565b9350612175818560208601611a8b565b61217e81611ab5565b840191505092915050565b600060808201905061219e6000830187611bb6565b6121ab6020830186611bb6565b6121b86040830185611ccc565b81810360608301526121ca8184612150565b905095945050505050565b6000815190506121e4816119e0565b92915050565b600060208284031215612200576121ff6119aa565b5b600061220e848285016121d5565b91505092915050565b7f4e487b7100000000000000000000000000000000000000000000000000000000600052601260045260246000fd5b600060408201905061225b6000830185611bb6565b6122686020830184611ccc565b939250505056fea26469706673582212209a1abe8ed0ffd0266e88f309efe2ba46f59be29bb180593f9fb5453f37313ed464736f6c63430008140033",
  "linkReferences": {},
  "deployedLinkReferences": {}
}