{
  "_format": "hh-sol-artifact-1",
  "contractName": "AfterpartyEventToken",
  "sourceName": "contracts/AfterpartyEventToken.sol",
  "abi": [
    {
      "inputs": [],
      "stateMutability": "nonpayable",
      "type": "constructor"
    },
    {
      "inputs": [
        {
          "internalType": "address",
          "name": "sender",
          "type": "address"
        },
        {
          "internalType": "uint256",
          "name": "balance",
          "type": "uint256"
        },
        {
          "internalType": "uint256",
          "name": "needed",
          "type": "uint256"
        },
        {
          "internalType": "uint256",
          "name": "tokenId",
          "type": "uint256"
        }
      ],
      "name": "ERC1155InsufficientBalance",
      "type": "error"
    },
    {
      "inputs": [
        {
          "internalType": "address",
          "name": "approver",
          "type": "address"
        }
      ],
      "name": "ERC1155InvalidApprover",
      "type": "error"
    },
    {
      "inputs": [
        {
          "internalType": "uint256",
          "name": "idsLength",
          "type": "uint256"
        },
        {
          "internalType": "uint256",
          "name": "valuesLength",
          "type": "uint256"
        }
      ],
      "name": "ERC1155InvalidArrayLength",
      "type": "error"
    },
    {
      "inputs": [
        {
          "internalType": "address",
          "name": "operator",
          "type": "address"
        }
      ],
      "name": "ERC1155InvalidOperator",
      "type": "error"
    },
    {
      "inputs": [
        {
          "internalType": "address",
          "name": "receiver",
          "type": "address"
        }
      ],
      "name": "ERC1155InvalidReceiver",
      "type": "error"
    },
    {
      "inputs": [
        {
          "internalType": "address",
          "name": "sender",
          "type": "address"
        }
      ],
      "name": "ERC1155InvalidSender",
      "type": "error"
    },
    {
      "inputs": [
        {
          "internalType": "address",
          "name": "operator",
          "type": "address"
        },
        {
          "internalType": "address",
          "name": "owner",
          "type": "address"
        }
      ],
      "name": "ERC1155MissingApprovalForAll",
      "type": "error"
    },
    {
      "inputs": [
        {
          "internalType": "address",
          "name": "owner",
          "type": "address"
        }
      ],
      "name": "OwnableInvalidOwner",
      "type": "error"
    },
    {
      "inputs": [
        {
          "internalType": "address",
          "name": "account",
          "type": "address"
        }
      ],
      "name": "OwnableUnauthorizedAccount",
      "type": "error"
    },
    {
      "anonymous": false,
      "inputs": [
        {
          "indexed": true,
          "internalType": "address",
          "name": "account",
          "type": "address"
        },
        {
          "indexed": true,
          "internalType": "address",
          "name": "operator",
          "type": "address"
        },
        {
          "indexed": false,
          "internalType": "bool",
          "name": "approved",
          "type": "bool"
        }
      ],
      "name": "ApprovalForAll",
      "type": "event"
    },
    {
      "anonymous": false,
      "inputs": [
        {
          "indexed": true,
          "internalType": "uint256",
          "name": "eventId",
          "type": "uint256"
        },
        {
          "indexed": true,
          "internalType": "address",
          "name": "organizer",
          "type": "address"
        },
        {
          "indexed": false,
          "internalType": "string",
          "name": "uri",
          "type": "string"
        }
      ],
      "name": "EventCreated",
      "type": "event"
    },
    {
      "anonymous": false,
      "inputs": [
        {
          "indexed": true,
          "internalType": "address",
          "name": "previousOwner",
          "type": "address"
        },
        {
          "indexed": true,
          "internalType": "address",
          "name": "newOwner",
          "type": "address"
        }
      ],
      "name": "OwnershipTransferred",
      "type": "event"
    },
    {
      "anonymous": false,
      "inputs": [
        {
          "indexed": true,
          "internalType": "uint256",
          "name": "eventId",
          "type": "uint256"
        },
        {
          "indexed": true,
          "internalType": "address",
          "name": "attendee",
          "type": "address"
        },
        {
          "indexed": false,
          "internalType": "uint256",
          "name": "amount",
          "type": "uint256"
        }
      ],
      "name": "TokenMinted",
      "type": "event"
    },
    {
      "anonymous": false,
      "inputs": [
        {
          "indexed": true,
          "internalType": "address",
          "name": "operator",
          "type": "address"
        },
        {
          "indexed": true,
          "internalType": "address",
          "name": "from",
          "type": "address"
        },
        {
          "indexed": true,
          "internalType": "address",
          "name": "to",
          "type": "address"
        },
        {
          "indexed": false,
          "internalType": "uint256[]",
          "name": "ids",
          "type": "uint256[]"
        },
        {
          "indexed": false,
          "internalType": "uint256[]",
          "name": "values",
          "type": "uint256[]"
        }
      ],
      "name": "TransferBatch",
      "type": "event"
    },
    {
      "anonymous": false,
      "inputs": [
        {
          "indexed": true,
          "internalType": "address",
          "name": "operator",
          "type": "address"
        },
        {
          "indexed": true,
          "internalType": "address",
          "name": "from",
          "type": "address"
        },
        {
          "indexed": true,
          "internalType": "address",
          "name": "to",
          "type": "address"
        },
        {
          "indexed": false,
          "internalType": "uint256",
          "name": "id",
          "type": "uint256"
        },
        {
          "indexed": false,
          "internalType": "uint256",
          "name": "value",
          "type": "uint256"
        }
      ],
      "name": "TransferSingle",
      "type": "event"
    },
    {
      "anonymous": false,
      "inputs": [
        {
          "indexed": false,
          "internalType": "string",
          "name": "value",
          "type": "string"
        },
        {
          "indexed": true,
          "internalType": "uint256",
          "name": "id",
          "type": "uint256"
        }
      ],
      "name": "URI",
      "type": "event"
    },
    {
      "inputs": [
        {
          "internalType": "address",
          "name": "account",
          "type": "address"
        },
        {
          "internalType": "uint256",
          "name": "id",
          "type": "uint256"
        }
      ],
      "name": "balanceOf",
      "outputs": [
        {
          "internalType": "uint256",
          "name": "",
          "type": "uint256"
        }
      ],
      "stateMutability": "view",
      "type": "function"
    },
    {
      "inputs": [
        {
          "internalType": "address[]",
          "name": "accounts",
          "type": "address[]"
        },
        {
          "internalType": "uint256[]",
          "name": "ids",
          "type": "uint256[]"
        }
      ],
      "name": "balanceOfBatch",
      "outputs": [
        {
          "internalType": "uint256[]",
          "name": "",
          "type": "uint256[]"
        }
      ],
      "stateMutability": "view",
      "type": "function"
    },
    {
      "inputs": [
        {
          "internalType": "string",
          "name": "eventUri",
          "type": "string"
        }
      ],
      "name": "createEvent",
      "outputs": [
        {
          "internalType": "uint256",
          "name": "",
          "type": "uint256"
        }
      ],
      "stateMutability": "payable",
      "type": "function"
    },
    {
      "inputs": [
        {
          "internalType": "uint256",
          "name": "",
          "type": "uint256"
        }
      ],
      "name": "events",
      "outputs": [
        {
          "internalType": "uint256",
          "name": "tokenId",
          "type": "uint256"
        },
        {
          "internalType": "address",
          "name": "organizer",
          "type": "address"
        },
        {
          "internalType": "string",
          "name": "uri",
          "type": "string"
        },
        {
          "internalType": "uint256",
          "name": "totalMinted",
          "type": "uint256"
        },
        {
          "internalType": "bool",
          "name": "exists",
          "type": "bool"
        }
      ],
      "stateMutability": "view",
      "type": "function"
    },
    {
      "inputs": [],
      "name": "getBalance",
      "outputs": [
        {
          "internalType": "uint256",
          "name": "",
          "type": "uint256"
        }
      ],
      "stateMutability": "view",
      "type": "function"
    },
    {
      "inputs": [
        {
          "internalType": "uint256",
          "name": "eventId",
          "type": "uint256"
        }
      ],
      "name": "getEvent",
      "outputs": [
        {
          "components": [
            {
              "internalType": "uint256",
              "name": "tokenId",
              "type": "uint256"
            },
            {
              "internalType": "address",
              "name": "organizer",
              "type": "address"
            },
            {
              "internalType": "string",
              "name": "uri",
              "type": "string"
            },
            {
              "internalType": "uint256",
              "name": "totalMinted",
              "type": "uint256"
            },
            {
              "internalType": "bool",
              "name": "exists",
              "type": "bool"
            }
          ],
          "internalType": "struct AfterpartyEventToken.Event",
          "name": "",
          "type": "tuple"
        }
      ],
      "stateMutability": "view",
      "type": "function"
    },
    {
      "inputs": [
        {
          "internalType": "address",
          "name": "organizer",
          "type": "address"
        }
      ],
      "name": "getOrganizerEvents",
      "outputs": [
        {
          "internalType": "uint256[]",
          "name": "",
          "type": "uint256[]"
        }
      ],
      "stateMutability": "view",
      "type": "function"
    },
    {
      "inputs": [
        {
          "internalType": "uint256",
          "name": "",
          "type": "uint256"
        },
        {
          "internalType": "address",
          "name": "",
          "type": "address"
        }
      ],
      "name": "hasClaimed",
      "outputs": [
        {
          "internalType": "bool",
          "name": "",
          "type": "bool"
        }
      ],
      "stateMutability": "view",
      "type": "function"
    },
    {
      "inputs": [
        {
          "internalType": "address",
          "name": "account",
          "type": "address"
        },
        {
          "internalType": "address",
          "name": "operator",
          "type": "address"
        }
      ],
      "name": "isApprovedForAll",
      "outputs": [
        {
          "internalType": "bool",
          "name": "",
          "type": "bool"
        }
      ],
      "stateMutability": "view",
      "type": "function"
    },
    {
      "inputs": [
        {
          "internalType": "uint256",
          "name": "eventId",
          "type": "uint256"
        }
      ],
      "name": "mintAttendanceToken",
      "outputs": [],
      "stateMutability": "nonpayable",
      "type": "function"
    },
    {
      "inputs": [
        {
          "internalType": "address",
          "name": "",
          "type": "address"
        },
        {
          "internalType": "uint256",
          "name": "",
          "type": "uint256"
        }
      ],
      "name": "organizerEvents",
      "outputs": [
        {
          "internalType": "uint256",
          "name": "",
          "type": "uint256"
        }
      ],
      "stateMutability": "view",
      "type": "function"
    },
    {
      "inputs": [],
      "name": "owner",
      "outputs": [
        {
          "internalType": "address",
          "name": "",
          "type": "address"
        }
      ],
      "stateMutability": "view",
      "type": "function"
    },
    {
      "inputs": [],
      "name": "renounceOwnership",
      "outputs": [],
      "stateMutability": "nonpayable",
      "type": "function"
    },
    {
      "inputs": [
        {
          "internalType": "address",
          "name": "from",
          "type": "address"
        },
        {
          "internalType": "address",
          "name": "to",
          "type": "address"
        },
        {
          "internalType": "uint256[]",
          "name": "ids",
          "type": "uint256[]"
        },
        {
          "internalType": "uint256[]",
          "name": "values",
          "type": "uint256[]"
        },
        {
          "internalType": "bytes",
          "name": "data",
          "type": "bytes"
        }
      ],
      "name": "safeBatchTransferFrom",
      "outputs": [],
      "stateMutability": "nonpayable",
      "type": "function"
    },
    {
      "inputs": [
        {
          "internalType": "address",
          "name": "from",
          "type": "address"
        },
        {
          "internalType": "address",
          "name": "to",
          "type": "address"
        },
        {
          "internalType": "uint256",
          "name": "id",
          "type": "uint256"
        },
        {
          "internalType": "uint256",
          "name": "value",
          "type": "uint256"
        },
        {
          "internalType": "bytes",
          "name": "data",
          "type": "bytes"
        }
      ],
      "name": "safeTransferFrom",
      "outputs": [],
      "stateMutability": "nonpayable",
      "type": "function"
    },
    {
      "inputs": [
        {
          "internalType": "address",
          "name": "operator",
          "type": "address"
        },
        {
          "internalType": "bool",
          "name": "approved",
          "type": "bool"
        }
      ],
      "name": "setApprovalForAll",
      "outputs": [],
      "stateMutability": "nonpayable",
      "type": "function"
    },
    {
      "inputs": [
        {
          "internalType": "bytes4",
          "name": "interfaceId",
          "type": "bytes4"
        }
      ],
      "name": "supportsInterface",
      "outputs": [
        {
          "internalType": "bool",
          "name": "",
          "type": "bool"
        }
      ],
      "stateMutability": "view",
      "type": "function"
    },
    {
      "inputs": [
        {
          "internalType": "address",
          "name": "newOwner",
          "type": "address"
        }
      ],
      "name": "transferOwnership",
      "outputs": [],
      "stateMutability": "nonpayable",
      "type": "function"
    },
    {
      "inputs": [
        {
          "internalType": "uint256",
          "name": "tokenId",
          "type": "uint256"
        }
      ],
      "name": "uri",
      "outputs": [
        {
          "internalType": "string",
          "name": "",
          "type": "string"
        }
      ],
      "stateMutability": "view",
      "type": "function"
    },
    {
      "inputs": [],
      "name": "withdrawFees",
      "outputs": [],
      "stateMutability": "nonpayable",
      "type": "function"
    }
  ],
  "bytecode": "0x60806040523480156200001157600080fd5b5033604051806020016040528060008152506200003481620000c260201b60201c565b50600073ffffffffffffffffffffffffffffffffffffffff168173ffffffffffffffffffffffffffffffffffffffff1603620000aa5760006040517f1e4fbdf7000000000000000000000000000000000000000000000000000000008152600401620000a19190620001e2565b60405180910390fd5b620000bb81620000d760201b60201c565b5062000560565b8060029081620000d3919062000479565b5050565b6000600360009054906101000a900473ffffffffffffffffffffffffffffffffffffffff16905081600360006101000a81548173ffffffffffffffffffffffffffffffffffffffff021916908373ffffffffffffffffffffffffffffffffffffffff1602179055508173ffffffffffffffffffffffffffffffffffffffff168173ffffffffffffffffffffffffffffffffffffffff167f8be0079c531659141344cd1fd0a4f28419497f9722a3daafe3b4186f6b6457e060405160405180910390a35050565b600073ffffffffffffffffffffffffffffffffffffffff82169050919050565b6000620001ca826200019d565b9050919050565b620001dc81620001bd565b82525050565b6000602082019050620001f96000830184620001d1565b92915050565b600081519050919050565b7f4e487b7100000000000000000000000000000000000000000000000000000000600052604160045260246000fd5b7f4e487b7100000000000000000000000000000000000000000000000000000000600052602260045260246000fd5b600060028204905060018216806200028157607f821691505b60208210810362000297576200029662000239565b5b50919050565b60008190508160005260206000209050919050565b60006020601f8301049050919050565b600082821b905092915050565b600060088302620003017fffffffffffffffffffffffffffffffffffffffffffffffffffffffffffffffff82620002c2565b6200030d8683620002c2565b95508019841693508086168417925050509392505050565b6000819050919050565b6000819050919050565b60006200035a620003546200034e8462000325565b6200032f565b62000325565b9050919050565b6000819050919050565b620003768362000339565b6200038e620003858262000361565b848454620002cf565b825550505050565b600090565b620003a562000396565b620003b28184846200036b565b505050565b5b81811015620003da57620003ce6000826200039b565b600181019050620003b8565b5050565b601f8211156200042957620003f3816200029d565b620003fe84620002b2565b810160208510156200040e578190505b620004266200041d85620002b2565b830182620003b7565b50505b505050565b600082821c905092915050565b60006200044e600019846008026200042e565b1980831691505092915050565b60006200046983836200043b565b9150826002028217905092915050565b6200048482620001ff565b67ffffffffffffffff811115620004a0576200049f6200020a565b5b620004ac825462000268565b620004b9828285620003de565b600060209050601f831160018114620004f15760008415620004dc578287015190505b620004e885826200045b565b86555062000558565b601f19841662000501866200029d565b60005b828110156200052b5784890151825560018201915060208501945060208101905062000504565b868310156200054b578489015162000547601f8916826200043b565b8355505b6001600288020188555050505b505050505050565b61379b80620005706000396000f3fe60806040526004361061011e5760003560e01c8063873f6f9e116100a0578063e4aa47e311610064578063e4aa47e314610401578063e985e9c51461043e578063f242432a1461047b578063f2fde38b146104a4578063ff9f5970146104cd5761011e565b8063873f6f9e146103175780638da5cb5b146103545780639bc2bc711461037f578063a22cb465146103af578063da4e5a2c146103d85761011e565b80632eb2c2d6116100e75780632eb2c2d614610246578063476343ee1461026f5780634e1273f4146102865780636d1884e0146102c3578063715018a6146103005761011e565b8062fdd58e1461012357806301ffc9a7146101605780630b7914301461019d5780630e89341c146101de57806312065fe01461021b575b600080fd5b34801561012f57600080fd5b5061014a60048036038101906101459190612379565b61050a565b60405161015791906123c8565b60405180910390f35b34801561016c57600080fd5b506101876004803603810190610182919061243b565b610564565b6040516101949190612483565b60405180910390f35b3480156101a957600080fd5b506101c460048036038101906101bf919061249e565b610646565b6040516101d595949392919061256a565b60405180910390f35b3480156101ea57600080fd5b506102056004803603810190610200919061249e565b610731565b60405161021291906125c4565b60405180910390f35b34801561022757600080fd5b5061023061083c565b60405161023d91906123c8565b60405180910390f35b34801561025257600080fd5b5061026d600480360381019061026891906127e3565b610844565b005b34801561027b57600080fd5b506102846108ec565b005b34801561029257600080fd5b506102ad60048036038101906102a89190612975565b6109f3565b6040516102ba9190612aab565b60405180910390f35b3480156102cf57600080fd5b506102ea60048036038101906102e5919061249e565b610b02565b6040516102f79190612bab565b60405180910390f35b34801561030c57600080fd5b50610315610ca9565b005b34801561032357600080fd5b5061033e60048036038101906103399190612bcd565b610cbd565b60405161034b9190612483565b60405180910390f35b34801561036057600080fd5b50610369610cec565b6040516103769190612c0d565b60405180910390f35b61039960048036038101906103949190612cc9565b610d16565b6040516103a691906123c8565b60405180910390f35b3480156103bb57600080fd5b506103d660048036038101906103d19190612d3e565b610ffa565b005b3480156103e457600080fd5b506103ff60048036038101906103fa919061249e565b611010565b005b34801561040d57600080fd5b5061042860048036038101906104239190612379565b611215565b60405161043591906123c8565b60405180910390f35b34801561044a57600080fd5b5061046560048036038101906104609190612d7e565b611246565b6040516104729190612483565b60405180910390f35b34801561048757600080fd5b506104a2600480360381019061049d9190612dbe565b6112da565b005b3480156104b057600080fd5b506104cb60048036038101906104c69190612e55565b611382565b005b3480156104d957600080fd5b506104f460048036038101906104ef9190612e55565b611408565b6040516105019190612aab565b60405180910390f35b600080600083815260200190815260200160002060008473ffffffffffffffffffffffffffffffffffffffff1673ffffffffffffffffffffffffffffffffffffffff16815260200190815260200160002054905092915050565b60007fd9b67a26000000000000000000000000000000000000000000000000000000007bffffffffffffffffffffffffffffffffffffffffffffffffffffffff1916827bffffffffffffffffffffffffffffffffffffffffffffffffffffffff1916148061062f57507f0e89341c000000000000000000000000000000000000000000000000000000007bffffffffffffffffffffffffffffffffffffffffffffffffffffffff1916827bffffffffffffffffffffffffffffffffffffffffffffffffffffffff1916145b8061063f575061063e8261149f565b5b9050919050565b60056020528060005260406000206000915090508060000154908060010160009054906101000a900473ffffffffffffffffffffffffffffffffffffffff169080600201805461069590612eb1565b80601f01602080910402602001604051908101604052809291908181526020018280546106c190612eb1565b801561070e5780601f106106e35761010080835404028352916020019161070e565b820191906000526020600020905b8154815290600101906020018083116106f157829003601f168201915b5050505050908060030154908060040160009054906101000a900460ff16905085565b60606005600083815260200190815260200160002060040160009054906101000a900460ff16610796576040517f08c379a000000000000000000000000000000000000000000000000000000000815260040161078d90612f2e565b60405180910390fd5b6005600083815260200190815260200160002060020180546107b790612eb1565b80601f01602080910402602001604051908101604052809291908181526020018280546107e390612eb1565b80156108305780601f1061080557610100808354040283529160200191610830565b820191906000526020600020905b81548152906001019060200180831161081357829003601f168201915b50505050509050919050565b600047905090565b600061084e611509565b90508073ffffffffffffffffffffffffffffffffffffffff168673ffffffffffffffffffffffffffffffffffffffff161415801561089357506108918682611246565b155b156108d75780866040517fe237d9220000000000000000000000000000000000000000000000000000000081526004016108ce929190612f4e565b60405180910390fd5b6108e48686868686611511565b505050505050565b6108f4611609565b60004790506000811161093c576040517f08c379a000000000000000000000000000000000000000000000000000000000815260040161093390612fc3565b60405180910390fd5b6000610946610cec565b73ffffffffffffffffffffffffffffffffffffffff168260405161096990613014565b60006040518083038185875af1925050503d80600081146109a6576040519150601f19603f3d011682016040523d82523d6000602084013e6109ab565b606091505b50509050806109ef576040517f08c379a00000000000000000000000000000000000000000000000000000000081526004016109e690613075565b60405180910390fd5b5050565b60608151835114610a3f57815183516040517f5b059991000000000000000000000000000000000000000000000000000000008152600401610a36929190613095565b60405180910390fd5b6000835167ffffffffffffffff811115610a5c57610a5b6125eb565b5b604051908082528060200260200182016040528015610a8a5781602001602082028036833780820191505090505b50905060005b8451811015610af757610ac7610aaf828761169090919063ffffffff16565b610ac283876116a490919063ffffffff16565b61050a565b828281518110610ada57610ad96130be565b5b60200260200101818152505080610af09061311c565b9050610a90565b508091505092915050565b610b0a61228a565b6005600083815260200190815260200160002060040160009054906101000a900460ff16610b6d576040517f08c379a0000000000000000000000000000000000000000000000000000000008152600401610b6490612f2e565b60405180910390fd5b600560008381526020019081526020016000206040518060a0016040529081600082015481526020016001820160009054906101000a900473ffffffffffffffffffffffffffffffffffffffff1673ffffffffffffffffffffffffffffffffffffffff1673ffffffffffffffffffffffffffffffffffffffff168152602001600282018054610bfb90612eb1565b80601f0160208091040260200160405190810160405280929190818152602001828054610c2790612eb1565b8015610c745780601f10610c4957610100808354040283529160200191610c74565b820191906000526020600020905b815481529060010190602001808311610c5757829003601f168201915b50505050508152602001600382015481526020016004820160009054906101000a900460ff1615151515815250509050919050565b610cb1611609565b610cbb60006116b8565b565b60076020528160005260406000206020528060005260406000206000915091509054906101000a900460ff1681565b6000600360009054906101000a900473ffffffffffffffffffffffffffffffffffffffff16905090565b6000655af3107a40003414610d60576040517f08c379a0000000000000000000000000000000000000000000000000000000008152600401610d57906131d6565b60405180910390fd5b60046000815480929190610d739061311c565b9190505550600060045490506040518060a001604052808281526020013373ffffffffffffffffffffffffffffffffffffffff1681526020018481526020016001815260200160011515815250600560008381526020019081526020016000206000820151816000015560208201518160010160006101000a81548173ffffffffffffffffffffffffffffffffffffffff021916908373ffffffffffffffffffffffffffffffffffffffff1602179055506040820151816002019081610e3991906133a2565b506060820151816003015560808201518160040160006101000a81548160ff021916908315150217905550905050600660003373ffffffffffffffffffffffffffffffffffffffff1673ffffffffffffffffffffffffffffffffffffffff168152602001908152602001600020819080600181540180825580915050600190039060005260206000200160009091909190915055610ee9338260016040518060200160405280600081525061177e565b60016007600083815260200190815260200160002060003373ffffffffffffffffffffffffffffffffffffffff1673ffffffffffffffffffffffffffffffffffffffff16815260200190815260200160002060006101000a81548160ff0219169083151502179055503373ffffffffffffffffffffffffffffffffffffffff16817ffc695dea2478fb938a11068aeedddd7046a5fe655f136e30a325d353fe187a4585604051610f9991906125c4565b60405180910390a33373ffffffffffffffffffffffffffffffffffffffff16817f2d03118aa776f7008445f6ca8490a6782ede2db364d741513555ba656ab1879f6001604051610fe991906134af565b60405180910390a380915050919050565b61100c611005611509565b8383611817565b5050565b6005600082815260200190815260200160002060040160009054906101000a900460ff16611073576040517f08c379a000000000000000000000000000000000000000000000000000000000815260040161106a90612f2e565b60405180910390fd5b6007600082815260200190815260200160002060003373ffffffffffffffffffffffffffffffffffffffff1673ffffffffffffffffffffffffffffffffffffffff16815260200190815260200160002060009054906101000a900460ff1615611111576040517f08c379a00000000000000000000000000000000000000000000000000000000081526004016111089061353c565b60405180910390fd5b61112d338260016040518060200160405280600081525061177e565b60016007600083815260200190815260200160002060003373ffffffffffffffffffffffffffffffffffffffff1673ffffffffffffffffffffffffffffffffffffffff16815260200190815260200160002060006101000a81548160ff0219169083151502179055506005600082815260200190815260200160002060030160008154809291906111bd9061311c565b91905055503373ffffffffffffffffffffffffffffffffffffffff16817f2d03118aa776f7008445f6ca8490a6782ede2db364d741513555ba656ab1879f600160405161120a91906134af565b60405180910390a350565b6006602052816000526040600020818154811061123157600080fd5b90600052602060002001600091509150505481565b6000600160008473ffffffffffffffffffffffffffffffffffffffff1673ffffffffffffffffffffffffffffffffffffffff16815260200190815260200160002060008373ffffffffffffffffffffffffffffffffffffffff1673ffffffffffffffffffffffffffffffffffffffff16815260200190815260200160002060009054906101000a900460ff16905092915050565b60006112e4611509565b90508073ffffffffffffffffffffffffffffffffffffffff168673ffffffffffffffffffffffffffffffffffffffff161415801561132957506113278682611246565b155b1561136d5780866040517fe237d922000000000000000000000000000000000000000000000000000000008152600401611364929190612f4e565b60405180910390fd5b61137a8686868686611987565b505050505050565b61138a611609565b600073ffffffffffffffffffffffffffffffffffffffff168173ffffffffffffffffffffffffffffffffffffffff16036113fc5760006040517f1e4fbdf70000000000000000000000000000000000000000000000000000000081526004016113f39190612c0d565b60405180910390fd5b611405816116b8565b50565b6060600660008373ffffffffffffffffffffffffffffffffffffffff1673ffffffffffffffffffffffffffffffffffffffff16815260200190815260200160002080548060200260200160405190810160405280929190818152602001828054801561149357602002820191906000526020600020905b81548152602001906001019080831161147f575b50505050509050919050565b60007f01ffc9a7000000000000000000000000000000000000000000000000000000007bffffffffffffffffffffffffffffffffffffffffffffffffffffffff1916827bffffffffffffffffffffffffffffffffffffffffffffffffffffffff1916149050919050565b600033905090565b600073ffffffffffffffffffffffffffffffffffffffff168473ffffffffffffffffffffffffffffffffffffffff16036115835760006040517f57f447ce00000000000000000000000000000000000000000000000000000000815260040161157a9190612c0d565b60405180910390fd5b600073ffffffffffffffffffffffffffffffffffffffff168573ffffffffffffffffffffffffffffffffffffffff16036115f55760006040517f01a835140000000000000000000000000000000000000000000000000000000081526004016115ec9190612c0d565b60405180910390fd5b6116028585858585611a92565b5050505050565b611611611509565b73ffffffffffffffffffffffffffffffffffffffff1661162f610cec565b73ffffffffffffffffffffffffffffffffffffffff161461168e57611652611509565b6040517f118cdaa70000000000000000000000000000000000000000000000000000000081526004016116859190612c0d565b60405180910390fd5b565b600060208202602084010151905092915050565b600060208202602084010151905092915050565b6000600360009054906101000a900473ffffffffffffffffffffffffffffffffffffffff16905081600360006101000a81548173ffffffffffffffffffffffffffffffffffffffff021916908373ffffffffffffffffffffffffffffffffffffffff1602179055508173ffffffffffffffffffffffffffffffffffffffff168173ffffffffffffffffffffffffffffffffffffffff167f8be0079c531659141344cd1fd0a4f28419497f9722a3daafe3b4186f6b6457e060405160405180910390a35050565b600073ffffffffffffffffffffffffffffffffffffffff168473ffffffffffffffffffffffffffffffffffffffff16036117f05760006040517f57f447ce0000000000000000000000000000000000000000000000000000000081526004016117e79190612c0d565b60405180910390fd5b6000806117fd8585611b44565b9150915061180f600087848487611a92565b505050505050565b600073ffffffffffffffffffffffffffffffffffffffff168273ffffffffffffffffffffffffffffffffffffffff16036118895760006040517fced3e1000000000000000000000000000000000000000000000000000000000081526004016118809190612c0d565b60405180910390fd5b80600160008573ffffffffffffffffffffffffffffffffffffffff1673ffffffffffffffffffffffffffffffffffffffff16815260200190815260200160002060008473ffffffffffffffffffffffffffffffffffffffff1673ffffffffffffffffffffffffffffffffffffffff16815260200190815260200160002060006101000a81548160ff0219169083151502179055508173ffffffffffffffffffffffffffffffffffffffff168373ffffffffffffffffffffffffffffffffffffffff167f17307eab39ab6107e8899845ad3d59bd9653f200f220920489ca2b5937696c318360405161197a9190612483565b60405180910390a3505050565b600073ffffffffffffffffffffffffffffffffffffffff168473ffffffffffffffffffffffffffffffffffffffff16036119f95760006040517f57f447ce0000000000000000000000000000000000000000000000000000000081526004016119f09190612c0d565b60405180910390fd5b600073ffffffffffffffffffffffffffffffffffffffff168573ffffffffffffffffffffffffffffffffffffffff1603611a6b5760006040517f01a83514000000000000000000000000000000000000000000000000000000008152600401611a629190612c0d565b60405180910390fd5b600080611a788585611b44565b91509150611a898787848487611a92565b50505050505050565b611a9e85858585611b74565b600073ffffffffffffffffffffffffffffffffffffffff168473ffffffffffffffffffffffffffffffffffffffff1614611b3d576000611adc611509565b90506001845103611b2c576000611afd6000866116a490919063ffffffff16565b90506000611b156000866116a490919063ffffffff16565b9050611b25838989858589611f22565b5050611b3b565b611b3a8187878787876120d6565b5b505b5050505050565b60608060405191506001825283602083015260408201905060018152826020820152604081016040529250929050565b8051825114611bbe57815181516040517f5b059991000000000000000000000000000000000000000000000000000000008152600401611bb5929190613095565b60405180910390fd5b6000611bc8611509565b905060005b8351811015611ddd576000611beb82866116a490919063ffffffff16565b90506000611c0283866116a490919063ffffffff16565b9050600073ffffffffffffffffffffffffffffffffffffffff168873ffffffffffffffffffffffffffffffffffffffff1614611d2f57600080600084815260200190815260200160002060008a73ffffffffffffffffffffffffffffffffffffffff1673ffffffffffffffffffffffffffffffffffffffff16815260200190815260200160002054905081811015611cd757888183856040517f03dee4c5000000000000000000000000000000000000000000000000000000008152600401611cce949392919061355c565b60405180910390fd5b81810360008085815260200190815260200160002060008b73ffffffffffffffffffffffffffffffffffffffff1673ffffffffffffffffffffffffffffffffffffffff16815260200190815260200160002081905550505b600073ffffffffffffffffffffffffffffffffffffffff168773ffffffffffffffffffffffffffffffffffffffff1614611dca578060008084815260200190815260200160002060008973ffffffffffffffffffffffffffffffffffffffff1673ffffffffffffffffffffffffffffffffffffffff1681526020019081526020016000206000828254611dc291906135a1565b925050819055505b505080611dd69061311c565b9050611bcd565b506001835103611e9c576000611dfd6000856116a490919063ffffffff16565b90506000611e156000856116a490919063ffffffff16565b90508573ffffffffffffffffffffffffffffffffffffffff168773ffffffffffffffffffffffffffffffffffffffff168473ffffffffffffffffffffffffffffffffffffffff167fc3d58168c5ae7397731d063d5bbf3d657854427343f4c083240f7aacaa2d0f628585604051611e8d929190613095565b60405180910390a45050611f1b565b8373ffffffffffffffffffffffffffffffffffffffff168573ffffffffffffffffffffffffffffffffffffffff168273ffffffffffffffffffffffffffffffffffffffff167f4a39dc06d4c0dbc64b70af90fd698a233a518aa5d07e595d983b8c0526c8f7fb8686604051611f129291906135d5565b60405180910390a45b5050505050565b60008473ffffffffffffffffffffffffffffffffffffffff163b11156120ce578373ffffffffffffffffffffffffffffffffffffffff1663f23a6e6187878686866040518663ffffffff1660e01b8152600401611f83959493929190613661565b6020604051808303816000875af1925050508015611fbf57506040513d601f19601f82011682018060405250810190611fbc91906136d0565b60015b612043573d8060008114611fef576040519150601f19603f3d011682016040523d82523d6000602084013e611ff4565b606091505b50600081510361203b57846040517f57f447ce0000000000000000000000000000000000000000000000000000000081526004016120329190612c0d565b60405180910390fd5b805181602001fd5b63f23a6e6160e01b7bffffffffffffffffffffffffffffffffffffffffffffffffffffffff1916817bffffffffffffffffffffffffffffffffffffffffffffffffffffffff1916146120cc57846040517f57f447ce0000000000000000000000000000000000000000000000000000000081526004016120c39190612c0d565b60405180910390fd5b505b505050505050565b60008473ffffffffffffffffffffffffffffffffffffffff163b1115612282578373ffffffffffffffffffffffffffffffffffffffff1663bc197c8187878686866040518663ffffffff1660e01b81526004016121379594939291906136fd565b6020604051808303816000875af192505050801561217357506040513d601f19601f8201168201806040525081019061217091906136d0565b60015b6121f7573d80600081146121a3576040519150601f19603f3d011682016040523d82523d6000602084013e6121a8565b606091505b5060008151036121ef57846040517f57f447ce0000000000000000000000000000000000000000000000000000000081526004016121e69190612c0d565b60405180910390fd5b805181602001fd5b63bc197c8160e01b7bffffffffffffffffffffffffffffffffffffffffffffffffffffffff1916817bffffffffffffffffffffffffffffffffffffffffffffffffffffffff19161461228057846040517f57f447ce0000000000000000000000000000000000000000000000000000000081526004016122779190612c0d565b60405180910390fd5b505b505050505050565b6040518060a0016040528060008152602001600073ffffffffffffffffffffffffffffffffffffffff16815260200160608152602001600081526020016000151581525090565b6000604051905090565b600080fd5b600080fd5b600073ffffffffffffffffffffffffffffffffffffffff82169050919050565b6000612310826122e5565b9050919050565b61232081612305565b811461232b57600080fd5b50565b60008135905061233d81612317565b92915050565b6000819050919050565b61235681612343565b811461236157600080fd5b50565b6000813590506123738161234d565b92915050565b600080604083850312156123905761238f6122db565b5b600061239e8582860161232e565b92505060206123af85828601612364565b9150509250929050565b6123c281612343565b82525050565b60006020820190506123dd60008301846123b9565b92915050565b60007fffffffff0000000000000000000000000000000000000000000000000000000082169050919050565b612418816123e3565b811461242357600080fd5b50565b6000813590506124358161240f565b92915050565b600060208284031215612451576124506122db565b5b600061245f84828501612426565b91505092915050565b60008115159050919050565b61247d81612468565b82525050565b60006020820190506124986000830184612474565b92915050565b6000602082840312156124b4576124b36122db565b5b60006124c284828501612364565b91505092915050565b6124d481612305565b82525050565b600081519050919050565b600082825260208201905092915050565b60005b838110156125145780820151818401526020810190506124f9565b60008484015250505050565b6000601f19601f8301169050919050565b600061253c826124da565b61254681856124e5565b93506125568185602086016124f6565b61255f81612520565b840191505092915050565b600060a08201905061257f60008301886123b9565b61258c60208301876124cb565b818103604083015261259e8186612531565b90506125ad60608301856123b9565b6125ba6080830184612474565b9695505050505050565b600060208201905081810360008301526125de8184612531565b905092915050565b600080fd5b7f4e487b7100000000000000000000000000000000000000000000000000000000600052604160045260246000fd5b61262382612520565b810181811067ffffffffffffffff82111715612642576126416125eb565b5b80604052505050565b60006126556122d1565b9050612661828261261a565b919050565b600067ffffffffffffffff821115612681576126806125eb565b5b602082029050602081019050919050565b600080fd5b60006126aa6126a584612666565b61264b565b905080838252602082019050602084028301858111156126cd576126cc612692565b5b835b818110156126f657806126e28882612364565b8452602084019350506020810190506126cf565b5050509392505050565b600082601f830112612715576127146125e6565b5b8135612725848260208601612697565b91505092915050565b600080fd5b600067ffffffffffffffff82111561274e5761274d6125eb565b5b61275782612520565b9050602081019050919050565b82818337600083830152505050565b600061278661278184612733565b61264b565b9050828152602081018484840111156127a2576127a161272e565b5b6127ad848285612764565b509392505050565b600082601f8301126127ca576127c96125e6565b5b81356127da848260208601612773565b91505092915050565b600080600080600060a086880312156127ff576127fe6122db565b5b600061280d8882890161232e565b955050602061281e8882890161232e565b945050604086013567ffffffffffffffff81111561283f5761283e6122e0565b5b61284b88828901612700565b935050606086013567ffffffffffffffff81111561286c5761286b6122e0565b5b61287888828901612700565b925050608086013567ffffffffffffffff811115612899576128986122e0565b5b6128a5888289016127b5565b9150509295509295909350565b600067ffffffffffffffff8211156128cd576128cc6125eb565b5b602082029050602081019050919050565b60006128f16128ec846128b2565b61264b565b9050808382526020820190506020840283018581111561291457612913612692565b5b835b8181101561293d5780612929888261232e565b845260208401935050602081019050612916565b5050509392505050565b600082601f83011261295c5761295b6125e6565b5b813561296c8482602086016128de565b91505092915050565b6000806040838503121561298c5761298b6122db565b5b600083013567ffffffffffffffff8111156129aa576129a96122e0565b5b6129b685828601612947565b925050602083013567ffffffffffffffff8111156129d7576129d66122e0565b5b6129e385828601612700565b9150509250929050565b600081519050919050565b600082825260208201905092915050565b6000819050602082019050919050565b612a2281612343565b82525050565b6000612a348383612a19565b60208301905092915050565b6000602082019050919050565b6000612a58826129ed565b612a6281856129f8565b9350612a6d83612a09565b8060005b83811015612a9e578151612a858882612a28565b9750612a9083612a40565b925050600181019050612a71565b5085935050505092915050565b60006020820190508181036000830152612ac58184612a4d565b905092915050565b612ad681612305565b82525050565b600082825260208201905092915050565b6000612af8826124da565b612b028185612adc565b9350612b128185602086016124f6565b612b1b81612520565b840191505092915050565b612b2f81612468565b82525050565b600060a083016000830151612b4d6000860182612a19565b506020830151612b606020860182612acd565b5060408301518482036040860152612b788282612aed565b9150506060830151612b8d6060860182612a19565b506080830151612ba06080860182612b26565b508091505092915050565b60006020820190508181036000830152612bc58184612b35565b905092915050565b60008060408385031215612be457612be36122db565b5b6000612bf285828601612364565b9250506020612c038582860161232e565b9150509250929050565b6000602082019050612c2260008301846124cb565b92915050565b600067ffffffffffffffff821115612c4357612c426125eb565b5b612c4c82612520565b9050602081019050919050565b6000612c6c612c6784612c28565b61264b565b905082815260208101848484011115612c8857612c8761272e565b5b612c93848285612764565b509392505050565b600082601f830112612cb057612caf6125e6565b5b8135612cc0848260208601612c59565b91505092915050565b600060208284031215612cdf57612cde6122db565b5b600082013567ffffffffffffffff811115612cfd57612cfc6122e0565b5b612d0984828501612c9b565b91505092915050565b612d1b81612468565b8114612d2657600080fd5b50565b600081359050612d3881612d12565b92915050565b60008060408385031215612d5557612d546122db565b5b6000612d638582860161232e565b9250506020612d7485828601612d29565b9150509250929050565b60008060408385031215612d9557612d946122db565b5b6000612da38582860161232e565b9250506020612db48582860161232e565b9150509250929050565b600080600080600060a08688031215612dda57612dd96122db565b5b6000612de88882890161232e565b9550506020612df98882890161232e565b9450506040612e0a88828901612364565b9350506060612e1b88828901612364565b925050608086013567ffffffffffffffff811115612e3c57612e3b6122e0565b5b612e48888289016127b5565b9150509295509295909350565b600060208284031215612e6b57612e6a6122db565b5b6000612e798482850161232e565b91505092915050565b7f4e487b7100000000000000000000000000000000000000000000000000000000600052602260045260246000fd5b60006002820490506001821680612ec957607f821691505b602082108103612edc57612edb612e82565b5b50919050565b7f4576656e7420646f6573206e6f74206578697374000000000000000000000000600082015250565b6000612f186014836124e5565b9150612f2382612ee2565b602082019050919050565b60006020820190508181036000830152612f4781612f0b565b9050919050565b6000604082019050612f6360008301856124cb565b612f7060208301846124cb565b9392505050565b7f4e6f206665657320746f20776974686472617700000000000000000000000000600082015250565b6000612fad6013836124e5565b9150612fb882612f77565b602082019050919050565b60006020820190508181036000830152612fdc81612fa0565b9050919050565b600081905092915050565b50565b6000612ffe600083612fe3565b915061300982612fee565b600082019050919050565b600061301f82612ff1565b9150819050919050565b7f5769746864726177616c206661696c6564000000000000000000000000000000600082015250565b600061305f6011836124e5565b915061306a82613029565b602082019050919050565b6000602082019050818103600083015261308e81613052565b9050919050565b60006040820190506130aa60008301856123b9565b6130b760208301846123b9565b9392505050565b7f4e487b7100000000000000000000000000000000000000000000000000000000600052603260045260246000fd5b7f4e487b7100000000000000000000000000000000000000000000000000000000600052601160045260246000fd5b600061312782612343565b91507fffffffffffffffffffffffffffffffffffffffffffffffffffffffffffffffff8203613159576131586130ed565b5b600182019050919050565b7f4576656e74206372656174696f6e20726571756972657320302e30303031204560008201527f5448000000000000000000000000000000000000000000000000000000000000602082015250565b60006131c06022836124e5565b91506131cb82613164565b604082019050919050565b600060208201905081810360008301526131ef816131b3565b9050919050565b60008190508160005260206000209050919050565b60006020601f8301049050919050565b600082821b905092915050565b6000600883026132587fffffffffffffffffffffffffffffffffffffffffffffffffffffffffffffffff8261321b565b613262868361321b565b95508019841693508086168417925050509392505050565b6000819050919050565b600061329f61329a61329584612343565b61327a565b612343565b9050919050565b6000819050919050565b6132b983613284565b6132cd6132c5826132a6565b848454613228565b825550505050565b600090565b6132e26132d5565b6132ed8184846132b0565b505050565b5b81811015613311576133066000826132da565b6001810190506132f3565b5050565b601f82111561335657613327816131f6565b6133308461320b565b8101602085101561333f578190505b61335361334b8561320b565b8301826132f2565b50505b505050565b600082821c905092915050565b60006133796000198460080261335b565b1980831691505092915050565b60006133928383613368565b9150826002028217905092915050565b6133ab826124da565b67ffffffffffffffff8111156133c4576133c36125eb565b5b6133ce8254612eb1565b6133d9828285613315565b600060209050601f83116001811461340c57600084156133fa578287015190505b6134048582613386565b86555061346c565b601f19841661341a866131f6565b60005b828110156134425784890151825560018201915060208501945060208101905061341d565b8683101561345f578489015161345b601f891682613368565b8355505b6001600288020188555050505b505050505050565b6000819050919050565b600061349961349461348f84613474565b61327a565b612343565b9050919050565b6134a98161347e565b82525050565b60006020820190506134c460008301846134a0565b92915050565b7f416c726561647920636c61696d656420746f6b656e20666f722074686973206560008201527f76656e7400000000000000000000000000000000000000000000000000000000602082015250565b60006135266024836124e5565b9150613531826134ca565b604082019050919050565b6000602082019050818103600083015261355581613519565b9050919050565b600060808201905061357160008301876124cb565b61357e60208301866123b9565b61358b60408301856123b9565b61359860608301846123b9565b95945050505050565b60006135ac82612343565b91506135b783612343565b92508282019050808211156135cf576135ce6130ed565b5b92915050565b600060408201905081810360008301526135ef8185612a4d565b905081810360208301526136038184612a4d565b90509392505050565b600081519050919050565b600082825260208201905092915050565b60006136338261360c565b61363d8185613617565b935061364d8185602086016124f6565b61365681612520565b840191505092915050565b600060a08201905061367660008301886124cb565b61368360208301876124cb565b61369060408301866123b9565b61369d60608301856123b9565b81810360808301526136af8184613628565b90509695505050505050565b6000815190506136ca8161240f565b92915050565b6000602082840312156136e6576136e56122db565b5b60006136f4848285016136bb565b91505092915050565b600060a08201905061371260008301886124cb565b61371f60208301876124cb565b81810360408301526137318186612a4d565b905081810360608301526137458185612a4d565b905081810360808301526137598184613628565b9050969550505050505056fea26469706673582212208c3fc14dc0d0777ae582947cae3d305a4c5600d2b0f836f343ec8f394eebb1bd64736f6c63430008140033",
  "linkReferences": {},
  "deployedLinkReferences": {}
}